:1003B500D29200D2910000000000C292000000001D
:0603C50000C291000022BD
:1003F100C29200D2910000000000D29200000000E1
:0104010022D8
:1002A200E4FEEFA806088002C333D8FC30E704D28C
:1002B200928002C29200D2910000000000C2910E10
:1002C200BE08DF0000D2920000D2910000003092FE
:0B02D20004C2018002D201C2910000B2
:0102DD0022FE
:10033E00E4FFD292FE00C2910000000000D29100B4
:10034E0000EF25E0FF3092010F00000EBE08E6C25E
:03035E009100000B
:010361002279
:10039D00200004C2928002D292000000D29100008F
:0803AD00000000C291000022D3
:10036200014500014600012B000122000147000265
:100372002900000125E601307F0243000002270028
:01038200007A
:040026008F108D1199
:10002A00E4FF1203B57FC01202A2300113AF10120F
:10003A0002A230010BAF111202A23001031203F126
:01004A002293
:0F04130043A22075CED075CDC043AF02D2AF2229
:1003840053877F759850759CDC438E04438E0143DC
:090394008E10D2AFD2ACD28E2241
:0F04220043890385258AD2AFD2A9D28CC28E22FC
:1003DF0075D904E4F5E9F5F975DA42F5EAF5FAD2DB
:0203EF00DE220C
:07043F00D28AD2AAD2AF223B
:1003CB007FFF1200037F0F1200037F0F1200037FCA
:0403DB00FF0200031A
:08001600853725853830AF3035
:05001E008FEA8FFA22B9
:10004E00C2961204221203DFC295C2947FFF1200E1
:10005E001E12038412041312043FE4F526F542F532
:10006E0041F540F53FE47F04FEFDFCAB42AA41A9F9
:10007E0040A83FC3120402501E742C2542F8E4F629
:10008E00E5422401F542E43541F541E43540F540C1
:10009E00E4353FF53F80CEC2C07F231204317F1B73
:1000AE001204317F131204317F4E120431E4F53EF7
:1000BE00E53E605CE4F53EE531F47054E532F470F3
:1000CE004FE53C64EF7049E53D64EF7043E533B4B2
:1000DE001108752B017533108003E4F52BE534B44C
:1000EE00110BD296AD3BAF3A1200268002C296E5B6
:1000FE0035B41117E536B41104C2948007E536B451
:10010E001002D294120016D2958005120016C295D6
:10011E00E52B640160030201AD752904752AB0F563
:10012E002BD3E52A9400E529940040737F0B12042B
:10013E00317FFF120431E5CF640B705EF5477522F7
:10014E00017F3B1204317FFF1204317FFF12043115
:10015E00752FEFE4754201F541F540F53FE47F035D
:10016E00FEFDFCAB42AA41A940A83FC312040250B7
:10017E0021742C2542F8E6FF120003E5422401F516
:10018E0042E43541F541E43540F540E4353FF53F75
:10019E0080CBE52A152A70021529E4F522808230DB
:1001AE00B4030200BE2094030200BEC294C2957F27
:1001BE00FF1200037FF01200037FF01200037FFF97
:0601CE001200030200BE56
:030023000202DEF8
:1002DE00C0E0C0D075D008309827C298743125215F
:1002EE00F8A699E531B4FF0405218003752100E5D8
:1002FE0021C3940D4008753E017521008003753EA3
:06030E0000D0D0D0E03267
:0300130002026086
:10026000C0E0C0F0C083C082C0D075D000C000C064
:1002700001C002C003C004C005C006C00720940727
:10028000C295D2941203CBD007D006D005D004D0AB
:1002900003D002D001D000D0D0D082D083D0F0D013
:0202A000E0324A
:03000B0002000EE2
:04000E0085258A3288
:03004B0002031499
:10031400C0E0C0D075D01843CD80E522B40116E505
:10032400477009742C2547F876FF8007742C2547FD
:0A033400F8A6CF0547D0D0D0E03284
:0E04310053AFFD8FCFE5CD30E7FB43AF022286
:080003008F993099FDC299228A
:030000000201D426
:0C01D400787FE4F6D8FD75814702021B1D
:10040200EB9FF5F0EA9E42F0E99D42F0E89C45F050
:0104120022C7
:1001E00002004EE493A3F8E493A34003F68001F2E7
:1001F00008DFF48029E493A3F85407240CC8C33320
:10020000C4540F4420C8834004F456800146F6DFEE
:10021000E4800B0102040810204080900362E47E19
:10022000019360BCA3FF543F30E509541FFEE493E3
:10023000A360010ECF54C025E060A840B8E493A3AA
:10024000FAE493A3F8E493A3C8C582C8CAC583CAD5
:10025000F0A3C8C582C8CAC583CADFE9DEE780BE8D
:010383000079
:00000001FF
